:100000000C943B010C946C010C946C010C946C01ED
:100010000C946C010C946C010C946C010C946C01AC
:100020000C946C010C946C010C946C010C946C019C
:100030000C946C010C946C010C946C010C946C018C
:100040000C946C010C9407080C946C010C946C01DA
:100050000C946C010C946C010C946C010C9433079F
:100060000C946C010C94FD060C94D3060C946C015A
:100070000C946C010C946C010C946C010C946C014C
:100080000C94D9070C946C010C946C010C946C01C9
:100090000C946C010C946C010C946C010C946C012C
:1000A0000C946C010C946C010C94AB070C946C01D7
:1000B0000C946C010C946C010C946C010C947D07F5
:1000C0000C946C010C946C010C946C010C946C01FC
:1000D0000C946C010C946C010C946C010C946C01EC
:1000E0000C946C010C9404020C9408030C943F04CF
:1000F0000C9416030C9402030C943E040C942803F5
:100100000C94BE010C9451020C940C030C94F50257
:100110000C94CC010C949B010C94AA010C94240324
:100120000C946E010C941A030C94D2020C94840566
:100130000C9410030C947A080C941E030C94E9029E
:100140000C94FE020C94ED020C94F8020C94D7026D
:100150000C94F10200002100240027002A002D0049
:100160003000330001010000040107010A01000012
:100170002200250028002B002E003100340002014F
:100180000000050108010B0100000A0B02090C0D1B
:100190000E0807030401000000000000000000003A
:1001A000000000000000000000000000000000004F
:1001B000000000001211100000000000000000000C
:1001C000000000000000000000000000000000002F
:1001D00020002300260029002C002F0032000001FF
:1001E00000000301060109010505050507050808CA
:1001F0000808020202020A0A0808040404040101B1
:1002000001010101010103030303030303030407C5
:1002100007070C0C0C0C0C0C0C0C0202020206065C
:100220000606060606060B0B0B0B0B0B0B0B01024F
:1002300010202008081020401020408002010201F8
:1002400008040201010204081020408080402010B0
:100250000804020180040201804020100804020109
:100260000804020101020408102040800102040871
:10027000102040807A0811241FBECFEFD1E2DEBFEC
:10028000CDBF00E00CBF12E0A0E0B2E0E2E0FDE193
:1002900000E00BBF02C007900D92A635B107D9F759
:1002A00023E0A6E5B2E001C01D92A43BB207E1F74E
:1002B00011E0CBE3D1E000E006C021970109802FD7
:1002C000FE010E94770ECA33D10780E00807A9F724
:1002D0000E9402090C947F0E0C940000AF92BF9212
:1002E000CF92DF92EF92FF920F931F93CF93DF9302
:1002F0006C017B018B01040F151FEB015E01AE1831
:10030000BF08C017D10759F06991D601ED91FC9152
:100310000190F081E02DC6011995892B79F7C5016F
:10032000DF91CF911F910F91FF90EF90DF90CF90D1
:10033000BF90AF900895FC01538D448D252F30E080
:10034000842F90E0821B930B541710F0CF960895E2
:1003500001970895FC01918D828D981761F0A28D0F
:10036000AE0FBF2FB11D5D968C91928D9F5F9F73D5
:10037000928F90E008958FEF9FEF0895FC01918D8B
:10038000828D981731F0828DE80FF11D858D90E0F8
:1003900008958FEF9FEF0895FC01918D228D892F95
:1003A00090E0805C9F4F821B91098F73992708957D
:1003B0008BE692E00E94CC0121E0892B09F420E039
:1003C000822F0895FC01A48DA80FB92FB11DA35A47
:1003D000BF4F2C91848D90E001968F739927848F65
:1003E000A689B7892C93A089B1898C918370806488
:1003F0008C93938D848D981306C00288F389E02D29
:1004000080818F7D80830895EF92FF920F931F93D9
:10041000CF93DF93EC0181E0888F9B8D8C8D9813B7
:100420001AC0E889F989808185FF15C09FB7F894C3
:10043000EE89FF896083E889F9898081837080640F
:1004400080839FBF81E090E0DF91CF911F910F915A
:10045000FF90EF900895F62E0B8D10E00F5F1F4F69
:100460000F731127E02E8C8D8E110CC00FB607FC78
:10047000FACFE889F989808185FFF5CFCE010E9406
:10048000E201F1CFEB8DEC0FFD2FF11DE35AFF4F91
:10049000F0829FB7F8940B8FEA89FB898081806294
:1004A000CFCFCF93DF93EC01888D8823B9F0AA8951
:1004B000BB89E889F9898C9185FD03C0808186FD1F
:1004C0000DC00FB607FCF7CF8C9185FFF2CF80816E
:1004D00085FFEDCFCE010E94E201E9CFDF91CF9100
:1004E000089580E090E0892B29F00E94D8018111C5
:1004F0000E94000080E090E0892B49F080E090E0CD
:10050000892B29F00E94000081110E94000080E0E8
:1005100090E0892B49F080E090E0892B29F00E943F
:10052000000081110E94000080E090E0892B49F0DA
:1005300080E090E0892B29F00E94000081110C944A
:1005400000000895282F30E0F901E857FE4F9491FC
:10055000F901E25DFD4F449128513E4FF90124918C
:10056000222309F435C0992311F191509231F8F406
:10057000E92FF0E08827E054FD4F8F4F0C94770E61
:10058000F102F502D202E902ED02D702F802FE0200
:10059000020308030C03100316031A03D7021E03F9
:1005A00024032803809180008F7780938000E22FBE
:1005B000F0E0EE0FFF1FE259FE4FA591B4918FB707
:1005C000F894EC91611148C040954E234C938FBF35
:1005D0000895809180008F7DE8CF80918000877F93
:1005E000E4CF84B58F7784BDE2CF84B58F7DFBCF18
:1005F0008091B0008F778093B000D9CF8091B00008
:100600008F7DF9CF809190008F7780939000CFCF2E
:10061000809190008F7DF9CF80919000877FF5CFFA
:100620008091A0008F778093A000C1CF8091A0001F
:100630008F7DF9CF8091A000877FF5CF8091200139
:100640008F7780932001B3CF809120018F7DF9CFE8
:1006500080912001877FF5CF4E2BB8CFCF93DF93CA
:1006600090E0FC01E25DFD4F249188519E4FFC011A
:1006700084918823D1F090E0880F991FFC01EC5AF7
:10068000FE4FA591B491FC01E259FE4FC591D49162
:1006900061110EC09FB7F8948C91E22FE0958E23E4
:1006A0008C932881E223E8839FBFDF91CF91089547
:1006B0008FB7F894EC91E22BEC938FBFF6CF3FB756
:1006C000F89480915F0290916002A0916102B091D4
:1006D000620226B5A89B05C02F3F19F00196A11D07
:1006E000B11D3FBFBA2FA92F982F8827BC01CD017C
:1006F000620F711D811D911D42E0660F771F881FDB
:10070000991F4A95D1F70895AF92BF92CF92DF9289
:10071000EF92FF920F931F93CF93DF936B017A01B8
:10072000EC01CA5ADD4F28813CE0389F8001399F97
:10073000100D1124A0909803B12C27FF1FC0FB01BE
:100740001182108288818F5F888388819801280FA9
:10075000311D87FD3A95F6012A153B051CF4888169
:100760008C30C4F180819181049680349C4908F4D6
:1007700073C0F60180819181049670C088819801D0
:10078000280F311D87FD3A952A153B05DCF6888137
:10079000A801480F511D87FD5A95FA01EE0FFF1F62
:1007A000E40FF51FE85FFC4F808186FFCBCF888187
:1007B000F801E80FF11D87FDFA95CF01EE0FFF1F3D
:1007C000E80FF91FE85FFC4F808160E08F730E94A3
:1007D000A202B8CF808191812881A801420F511DCA
:1007E00027FD5A959A01FA01EE0FFF1FE20FF31F42
:1007F000E85FFC4F21813281820F931FF7019183C3
:10080000808388819801280F311D87FD3A95F90171
:10081000EE0FFF1FE20FF31FE85FFC4F808186FFA2
:1008200022C08881080F111D87FD1A95F801EE0F6F
:10083000FF1FE00FF11FE85FFC4F808161E08F73C5
:10084000DF91CF911F910F91FF90EF90DF90CF90AC
:10085000BF90AF900C94A20280E49CE9F7019183D1
:1008600080838FEF8883DF91CF911F910F91FF904D
:10087000EF90DF90CF90BF90AF900895089590E0F3
:1008800080E00895CF93DF93EC0160E08E810E94B9
:10089000A20261E08E810E94A20260E08E810E942D
:1008A000A2028BE891E00197F1F7DF91CF910895D3
:1008B000CF92DF92EF92FF920F931F93CF93DF932C
:1008C0006C017C0187E0E80EF11CD0E0C0E0062F4F
:1008D00010E0B8010C2E02C0759567950A94E2F7F6
:1008E0006170F70181917F010E94A2022196C430BC
:1008F000D10579F7C601DF91CF911F910F91FF903C
:10090000EF90DF90CF900C944204CF92DF92EF9261
:10091000FF920F931F93CF93DF93EC01F62E642F7A
:100920008C810E94A2028D818F3F19F060E00E94AD
:10093000A2020F2D10E08F8584FF25C06E0187E095
:10094000C80ED11CF12CE12CB8010E2C02C07595FB
:1009500067950A94E2F76170F60181916F010E9438
:10096000A202FFEFEF1AFF0A88E0E816F10461F730
:10097000CE01DF91CF911F910F91FF90EF90DF900B
:10098000CF900C944204B80184E0759567958A95E0
:10099000E1F7CE010E9458046F2DCE01DF91CF9177
:1009A0001F910F91FF90EF90DF90CF900C9458041F
:1009B00040E0682F89E993E00C948504CF93DF939E
:1009C000823029F49091A80398609093A8038093B3
:1009D000AC031092AD0380E48093AE0380E180937A
:1009E000AF0380E58093B00361E080919D030E9496
:1009F0002E0380919E038F3F19F061E00E942E0329
:100A000061E080919F030E942E03C9E9D3E09E011B
:100A1000295933408091A80384FD0BC084E090E005
:100A200021962817390744F461E08E810E942E0335
:100A3000EECF88E090E0F4CF8BE39DE00197F1F7F3
:100A400060E080919D030E94A20260E080919F037C
:100A50000E94A20280919E038F3F19F060E00E94E5
:100A6000A2028091A80384FD39C063E089E993E084
:100A70000E945804CBE4D6E4CE010197F1F763E07D
:100A800089E993E00E9458042197F1F763E089E92E
:100A900093E00E94580483E592E00197F1F762E049
:100AA00089E993E00E9458048091A80380620E9423
:100AB000D80484E08093A9038CE00E94D80481E0EC
:100AC0000E94D8048BE39FE10197F1F782E08093C5
:100AD000AA0386E0DF91CF910C94D80480620E9433
:100AE000D8048BE496E40197F1F78091A803806223
:100AF0000E94D80483E592E00197F1F78091A80362
:100B000080620E94D804D0CF41E00E94850481E039
:100B100090E00895FB0101900020E9F73197AF01C3
:100B2000461B570BDC01ED91FC910280F381E02D17
:100B300019948F929F92AF92BF92EF92FF920F9370
:100B40001F93CF93DF93CDB7DEB7A1970FB6F8947D
:100B5000DEBF0FBECDBF7C01FA01CB0119A222304E
:100B600008F42AE08E010F5D1F4F822E912CB12CCC
:100B7000A12CBF01A50194010E94F70BF901CA0144
:100B80006A300CF5605DD8016E938D01232B242B08
:100B9000252B79F790E080E0109721F0BD01C70187
:100BA0000E948A05A1960FB6F894DEBF0FBECDBF96
:100BB000DF91CF911F910F91FF90EF90BF90AF9079
:100BC0009F908F900895695CDECF2F923F924F9255
:100BD0005F926F927F928F929F92AF92BF92CF92CD
:100BE000DF92EF92FF921F93CF93DF93EC016A01A4
:100BF0007B01722EAB019601CB01B6010E94660EFD
:100C00006EE172E0811126C046015701E894B7F801
:100C10002FEF3FEF4FE75FE7C501B4010E94660E7B
:100C200081110CC02FEF3FEF4FE75FE7C501B40123
:100C30000E94950C62E272E0181664F02FEF3FEF0D
:100C40004FE75FE4C701B6010E94F40D1816B4F433
:100C500066E272E0CE01DF91CF911F91FF90EF909D
:100C6000DF90CF90BF90AF909F908F907F906F90CC
:100C70005F904F903F902F900C948A052FEF3FEF9D
:100C80004FE75FECC701B6010E94950C87FDE0CFEE
:100C900020E030E0A901C701B6010E94950C312C7B
:100CA000212C87FF0DC0E881F9810190F081E02DB2
:100CB0006DE2CE0119951C01F7FAF094F7F8F09463
:100CC00010E060E070E080E09FE3711641F020E00A
:100CD00030E040E251E40E949A0C1F5FF6CFA7017A
:100CE00096010E94290C2B013C010E94130D4B011F
:100CF0005C012AE0BC01A401CE010E9499057C019F
:100D0000E20CF31C1123E1F1C501B4010E94420D74
:100D10009B01AC01C301B2010E94280C4B015C0194
:100D2000E881F9810190F081E02D6EE2CE01199504
:100D3000E80EF91E115020F120E030E040E251E4CD
:100D4000C501B4010E94F90D2B013C010E94130D55
:100D50004B01B12CA12C2AE0B501A401CE010E94C7
:100D60009905E80EF91EC501B4010E94420D9B01D0
:100D7000AC01C301B2010E94280C4B015C01DACF27
:100D8000C701DF91CF911F91FF90EF90DF90CF903F
:100D9000BF90AF909F908F907F906F905F904F909B
:100DA0003F902F9008951F920F920FB60F9211242B
:100DB0000BB60F922F933F934F935F936F937F9355
:100DC0008F939F93AF93BF93EF93FF938BE692E044
:100DD0000E94E201FF91EF91BF91AF919F918F919E
:100DE0007F916F915F914F913F912F910F900BBE2B
:100DF0000F900FBE0F901F9018951F920F920FB675
:100E00000F9211240BB60F922F938F939F93EF9312
:100E1000FF93E0917B02F0917C028081E09181025E
:100E2000F091820282FD1DC09081809184028F5FCB
:100E30008F7320918502821741F0E0918402F0E0E7
:100E4000E559FD4F958F80938402FF91EF919F911B
:100E50008F912F910F900BBE0F900FBE0F901F9090
:100E600018958081F2CF1F920F920FB60F92112426
:100E70002F933F938F939F93AF93BF9380915B0288
:100E800090915C02A0915D02B0915E0230915A0295
:100E900023E0230F2D3758F50196A11DB11D209396
:100EA0005A0280935B0290935C02A0935D02B09320
:100EB0005E0280915F0290916002A0916102B09108
:100EC00062020196A11DB11D80935F0290936002A2
:100ED000A0936102B0936202BF91AF919F918F91F5
:100EE0003F912F910F900FBE0F901F90189526E8FD
:100EF000230F0296A11DB11DD2CF1F920F920FB6E4
:100F00000F9211240BB60F922F933F934F935F9341
:100F10006F937F938F939F93AF93BF93EF93FF93C1
:100F200048E251E064E271E090E080E00E948403D6
:100F3000FF91EF91BF91AF919F918F917F916F91B1
:100F40005F914F913F912F910F900BBE0F900FBE6D
:100F50000F901F9018951F920F920FB60F921124A9
:100F60000BB60F922F933F934F935F936F937F93A3
:100F70008F939F93AF93BF93EF93FF9348EA50E013
:100F800064EA70E083E090E00E948403FF91EF91B7
:100F9000BF91AF919F918F917F916F915F914F9191
:100FA0003F912F910F900BBE0F900FBE0F901F908F
:100FB00018951F920F920FB60F9211240BB60F9235
:100FC0002F933F934F935F936F937F938F939F9351
:100FD000AF93BF93EF93FF9348E950E064E970E06B
:100FE00082E090E00E948403FF91EF91BF91AF9166
:100FF0009F918F917F916F915F914F913F912F9131
:101000000F900BBE0F900FBE0F901F9018951F9260
:101010000F920FB60F9211240BB60F922F933F939E
:101020004F935F936F937F938F939F93AF93BF93F0
:10103000EF93FF9348E850E064E870E081E090E0CF
:101040000E948403FF91EF91BF91AF919F918F9187
:101050007F916F915F914F913F912F910F900BBEB8
:101060000F900FBE0F901F901895CF92DF92EF92C6
:10107000FF920F931F93E82FF92F05C0015011091C
:101080002109310961F1908196239417B9F305C0C4
:10109000015011092109310911F19081962394130E
:1010A000F7CFC12CD12CE12CF12C0AC08FEFC81A3C
:1010B000D80AE80AF80A0C151D052E053F0579F037
:1010C00080818623841791F36C2D7D2D8E2D9F2D8D
:1010D0001F910F91FF90EF90DF90CF90089560E007
:1010E00070E080E090E01F910F91FF90EF90DF9013
:1010F000CF90089510926E0210926D0288EE93E0E8
:10110000A0E0B0E080936F0290937002A093710210
:10111000B093720284E092E090936C0280936B0231
:1011200085EC90E0909378028093770284EC90E0D5
:1011300090937A028093790280EC90E090937C0205
:1011400080937B0281EC90E090937E0280937D02FD
:1011500082EC90E09093800280937F0286EC90E096
:1011600090938202809381021092840210928502F1
:101170001092860210928702809198038033F0F5D6
:1011800091E0980F909398038093B10390E0FC0155
:10119000EE0FFF1FE80FF91FE85FFC4F88EB9BE0A5
:1011A0009283818310929C0310929B0386E192E0CC
:1011B00090939A03809399038DE080939D038FEF22
:1011C00080939E038CE080939F038BE08093A00329
:1011D0008AE08093A10389E08093A20388E0809352
:1011E000A3031092A4031092A5031092A6031092D9
:1011F000A7031092A80381E00C94DE048FEF809384
:10120000B103D0CF789484B5826084BD84B5816009
:1012100084BD85B5826085BD85B5816085BD8091C1
:101220006E00816080936E00109281008091810039
:101230008260809381008091810081608093810031
:10124000809180008160809380008091B1008460F3
:101250008093B1008091B00081608093B000809154
:1012600091008260809391008091910081608093D1
:101270009100809190008160809390008091A10006
:1012800082608093A1008091A10081608093A10081
:101290008091A00081608093A000809121018260F4
:1012A00080932101809121018160809321018091AF
:1012B000200181608093200180917A008460809376
:1012C0007A0080917A00826080937A0080917A001F
:1012D000816080937A0080917A00806880937A00A0
:1012E0001092C1008091B103803308F052C061E0D8
:1012F00086E00E942E038091B103282F30E0F9018F
:10130000EE0FFF1FE20FF31FE85FFC4F9081907C10
:10131000966090831092B2031092B3032CE0622F78
:101320000E946B0E829FB001112430E020E0AB01DF
:10133000420F531FFA01EE0FFF1FE40FF51FE85F86
:10134000FC4F908196FD17C02F5F3F4F2C30310529
:1013500071F7813009F0EBC11092800082E0809338
:1013600081001092850010928400B19A80916F00E4
:10137000826080936F00E091B1038E2F90E0FC01BA
:10138000EE0FFF1FE80FF91FE85FFC4F80818064BC
:10139000808361E083E00E942E0360E082E00E948F
:1013A0002E03E0917B02F0917C0282E08083E09149
:1013B0007702F09178021082E0917902F0917A023E
:1013C0008FEC808310928302E0917F02F091800283
:1013D00086E08083E0917D02F0917E0280818061D1
:1013E0008083E0917D02F0917E028081886080831D
:1013F000E0917D02F0917E02808180688083E0919F
:101400007D02F0917E0280818F7D808382E00E9448
:10141000DE0408E8202E312CC8E5D2E084EB482E0B
:10142000512C612C712C60E083E00E94A20283E0C9
:1014300090E00197F1F761E083E00E94A20283E26D
:1014400090E00197F1F760E083E00E94A202E0E300
:10145000F2E06491EAEEF1E08491E82FF0E0EE0F23
:10146000FF1FE253FE4F8591949100E412E42FE0B8
:1014700030E0462F0E943508611571058105910500
:1014800029F06F5F7F4F8F4F9F4F9F700E94420DDB
:1014900060936702709368028093690290936A0276
:1014A00028E23EE74CE05DE30E94F90D20E030E0E9
:1014B00040E05FE30E94F90D609363027093640261
:1014C0008093650290936602E1E08091AC03811104
:1014D000E0E0E195F0E0E756FC4F848980680E94E7
:1014E000D8046AE272E08BE692E00E948A0540919D
:1014F000630250916402609165027091660222E07D
:101500008BE692E00E94E5056BE372E08BE692E0E9
:101510000E948A056EE372E089E993E00E948A05E1
:10152000409163025091640260916502709166027D
:1015300022E089E993E00E94E505E091AC03E23006
:1015400008F021C1E150F0E0E756FC4F8489806843
:101550000E94D80469E472E089E993E00E948A0558
:10156000C0906302D0906402E0906502F090660241
:1015700020E030E0A901C701B6010E94950C70E09F
:1015800060E087FD10C020E030E044E353E4C70191
:10159000B6010E94F40D64EB70E0181624F0C70148
:1015A000B6010E940C0D6B01770FEE08FF082AE0D0
:1015B000B701A601F7FE0EC041E06DE289E993E0B4
:1015C0000E94850444275527BA014C195D096E090C
:1015D0007F092AE089E993E00E94990560916302FE
:1015E0007091640280916502909166020E940C0DD8
:1015F0009B016032F2E07F07BCF52091B2036101EC
:10160000C21AD10827FDD394CC0CDD1CCC0CDD1CF8
:101610000D2C000CEE08FF082091B303AE01421B15
:10162000510927FD53959A01220F331F220F331FB3
:10163000032E000C440B550B2C193D094E095F0974
:10164000DB01653B710514F0A4EBB0E0B7FF02C00D
:10165000B0E0A0E00E94EF0BA30192010E94C50B35
:101660002C0D3D1D4E1D5F1D4091B103403380F593
:101670008091B203B101681B710987FD7395CB019D
:10168000880F991F880F991F2817390784F08091B8
:10169000B303FE01E81BF10987FDF395CF01880F25
:1016A000991F880F991F281739070CF4C901029751
:1016B000880F991F6FB7F89450E09A01220F331FDB
:1016C000240F351FF901E85FFC4F928381836FBFC0
:1016D0000E945F034B015C0184EFC82EDD24D3948C
:1016E000E12CF12C0E945F03681979098A099B0992
:1016F000683E734081059105A8F3F1E0CF1AD10847
:10170000E108F10828EE820E23E0921EA11CB11C14
:10171000C114D104E104F10429F781E00E94D80446
:101720008BE39FE10197F1F70E9471027CCE82303A
:1017300061F41092900080939100109295001092A5
:10174000940088BB8093710016CE833069F41092A8
:10175000A00082E08093A1001092A5001092A40046
:1017600089BB8093720007CE811105CE10922001B3
:1017700082E08093210110922501109224018ABBFE
:1017800080937300F8CDE1E0DECE052E97FB1EF4CA
:1017900000940E94DC0B57FD07D00E94F70B07FC5A
:1017A00003D04EF40C94DC0B509540953095219568
:1017B0003F4F4F4F5F4F089590958095709561957D
:1017C0007F4F8F4F9F4F08950E94190CA59F900D3A
:1017D000B49F900DA49F800D911D11240895B7FF13
:1017E0000C94E40B0E94E40B821B930B0895A1E27E
:1017F0001A2EAA1BBB1BFD010DC0AA1FBB1FEE1F8B
:10180000FF1FA217B307E407F50720F0A21BB30BD5
:10181000E40BF50B661F771F881F991F1A9469F751
:1018200060957095809590959B01AC01BD01CF01AD
:101830000895A29FB001B39FC001A39F700D811DA9
:101840001124911DB29F700D811D1124911D0895C9
:101850005058BB27AA270E94400C0C94BA0D0E9436
:10186000AC0D38F00E94B30D20F039F49F3F19F40D
:1018700026F40C94A90D0EF4E095E7FB0C94A30D4F
:10188000E92F0E94CB0D58F3BA176207730784073C
:10189000950720F079F4A6F50C94ED0D0EF4E09583
:1018A0000B2EBA2FA02D0B01B90190010C01CA011A
:1018B000A0011124FF27591B99F0593F50F4503EC5
:1018C00068F11A16F040A22F232F342F4427585FB7
:1018D000F3CF469537952795A795F0405395C9F7CF
:1018E0007EF41F16BA0B620B730B840BBAF0915087
:1018F000A1F0FF0FBB1F661F771F881FC2F70EC026
:10190000BA0F621F731F841F48F4879577956795F8
:10191000B795F7959E3F08F0B0CF9395880F08F0E4
:101920009927EE0F9795879508950E947F0D08F4EB
:1019300081E008950E94AE0C0C94BA0D0E94B30D84
:1019400058F00E94AC0D40F029F45F3F29F00C9450
:10195000A30D51110C94EE0D0C94A90D0E94CB0D0A
:1019600068F39923B1F3552391F3951B550BBB27CE
:10197000AA2762177307840738F09F5F5F4F220F13
:10198000331F441FAA1FA9F335D00E2E3AF0E0E80A
:1019900032D091505040E695001CCAF72BD0FE2F54
:1019A00029D0660F771F881FBB1F261737074807E8
:1019B000AB07B0E809F0BB0B802DBF01FF279358A0
:1019C0005F4F3AF09E3F510578F00C94A30D0C94B4
:1019D000EE0D5F3FE4F3983ED4F3869577956795D7
:1019E000B795F7959F5FC9F7880F911D96958795D5
:1019F00097F90895E1E0660F771F881FBB1F6217F4
:101A000073078407BA0720F0621B730B840BBA0BB1
:101A1000EE1F88F7E09508950E94130D6894B111A8
:101A20000C94EE0D08950E94D30D88F09F5798F006
:101A3000B92F9927B751B0F0E1F0660F771F881FD3
:101A4000991F1AF0BA95C9F714C0B13091F00E94ED
:101A5000ED0DB1E008950C94ED0D672F782F8827D8
:101A6000B85F39F0B93FCCF3869577956795B39514
:101A7000D9F73EF490958095709561957F4F8F4F83
:101A80009F4F0895E89409C097FB3EF49095809588
:101A9000709561957F4F8F4F9F4F9923A9F0F92F34
:101AA00096E9BB279395F695879577956795B795B2
:101AB000F111F8CFFAF4BB0F11F460FF1BC06F5F98
:101AC0007F4F8F4F9F4F16C0882311F096E911C0AA
:101AD000772321F09EE8872F762F05C0662371F0CB
:101AE00096E8862F70E060E02AF09A95660F771FDF
:101AF000881FDAF7880F9695879597F90895990FBB
:101B00000008550FAA0BE0E8FEEF16161706E807C7
:101B1000F907C0F012161306E407F50798F0621BE8
:101B2000730B840B950B39F40A2661F0232B242BBD
:101B3000252B21F408950A2609F4A140A6958FEFDC
:101B4000811D811D089597F99F6780E870E060E02E
:101B500008959FEF80EC089500240A941616170646
:101B600018060906089500240A941216130614068E
:101B700005060895092E0394000C11F4882352F0F1
:101B8000BB0F40F4BF2B11F460FF04C06F5F7F4FA9
:101B90008F4F9F4F089557FD9058440F551F59F090
:101BA0005F3F71F04795880F97FB991F61F09F3F4A
:101BB00079F087950895121613061406551FF2CF73
:101BC0004695F1DF08C0161617061806991FF1CFC3
:101BD00086957105610508940895E894BB276627EA
:101BE0007727CB0197F908950E947F0D08F48FEFB6
:101BF00008950E940C0E0C94BA0D0E94AC0D38F0A2
:101C00000E94B30D20F0952311F00C94A30D0C94B9
:101C1000A90D11240C94EE0D0E94CB0D70F3959F2D
:101C2000C1F3950F50E0551F629FF001729FBB27D3
:101C3000F00DB11D639FAA27F00DB11DAA1F649F6F
:101C40006627B00DA11D661F829F2227B00DA11D22
:101C5000621F739FB00DA11D621F839FA00D611DA8
:101C6000221F749F3327A00D611D231F849F600DC9
:101C7000211D822F762F6A2F11249F5750409AF0F2
:101C8000F1F088234AF0EE0FFF1FBB1F661F771F7E
:101C9000881F91505040A9F79E3F510580F00C9449
:101CA000A30D0C94EE0D5F3FE4F3983ED4F38695BC
:101CB00077956795B795F795E7959F5FC1F7FE2BE9
:101CC000880F911D9695879597F908950E947F0D2D
:101CD000880B990B0895991B79E004C0991F9617FA
:101CE00008F0961B881F7A95C9F780950895EE0F26
:101CF000FF1F881F8BBF0790F691E02D1994F89471
:021D0000FFCF13
:101D02000000000004026E019B015102CC01AA01F5
:101D1200BE010000000084056E013F043E046E61B6
:101D22006E00696E66006F76660044697374616E58
:101D3200636520696E20436D3A20000D0A004469F4
:101D42007374616E63653A2000536572766F416EFB
:061D5200676C653A2000F9
:00000001FF
